:100000000C942B060C9472060C9472060C947206D7
:100010000C9472060C9472060C9472060C94720680
:100020000C9472060C9472060C942B200C94FD20F8
:100030000C946D170C9472060C9472060C94720654
:100040000C9472060C9472060C9472060C94720650
:100050000C9472060C94D5170C9472060C947206CC
:100060000C9472060C9472060C9472060C94720630
:100070000C9472060C9472060C9472060C94720620
:100080000C9472060C9472060C9472060C94720610
:100090000C9472060C9472060C9472060C94720600
:1000A0000C9472060C9472060C947206ED06EF0620
:1000B000FA06F106F306F506F706F906FC06FE0653
:1000C00000070B0702070407060708070A070D07C2
:1000D000BC0DBC0DEE0DEE0D280E460E670F670F22
:1000E000510E670FF40EF40E580F670F670F610F74
:1000F000010F010F010F010F010F010F010F010F80
:10010000010F010F010F010F010F010F010F010F6F
:10011000100F1E0F250F2C0F360FE70FE70FF90FEB
:10012000F90FF00FF90FF90FF90FE70FE70FF50FC0
:10013000F90FF90FF50F6A218C217F228C217F2284
:10014000D121F4217F2249225C2229002C002C009D
:100150002F0030003300340031002D002E0000004D
:100160002A002400250026002B00000014001A009D
:100170000800150017001C0018000C0012001300E6
:1001800021002200230039000000040016000700AF
:1001900009000A000B000D000E000F0038001E00C1
:1001A0001F002000E10000001D001B0006001900D8
:1001B0000500110010003600370052000000270033
:1001C0003700E0000000E300E20000000000000053
:1001D0002C0000000000500051004F0000002800DB
:1001E0000100010001000100010001000100010007
:1001F00001000100000001000100010001000100F8
:1002000000000100010001000100010001000100E7
:1002100001000100010001000100010001000000D7
:1002200001000100010001000100010001000100C6
:1002300001000100010001000100010000000100B7
:1002400001000100010001000100010001000100A6
:100250000100000001000100010000000100010098
:10026000000000000000010000000000010001008B
:100270000100000001000100010001000100010077
:100280000100010001000100010000000100010067
:100290000100010001000000010001000100010057
:1002A0000100010001000100010001000100010046
:1002B0000100010000000100010001000100010037
:1002C0000100010001000100010001000100010026
:1002D0000100000001000100010001000100010017
:1002E0000100010001000100000001000100010007
:1002F00000000100010000000000000001000000FB
:1003000000000100010001000000010001000100E7
:1003100001000100010001000100010001000100D5
:1003200000000100010001000100010000000100C7
:1003300001000100010001000100010001000100B5
:1003400001000100010001000100000001000100A6
:100350000100010001000100010001000100010095
:100360000100010001000100000001000100010086
:100370000100010001000100010001000100000076
:100380000100010001000000010001000000000068
:100390000000010000000000010001000100000059
:1003A0000100010001000100010001000100010045
:1003B0000100010001000000010001000100010036
:1003C0000100000001000100010001000100010026
:1003D0000100010001000100010001000100010015
:1003E0000000010001000100010001000100010006
:1003F00001000100010001000100010001000000F6
:1004000001000100010001000100010001000100E4
:1004100001000100000001000100010000000100D6
:1004200001000000000000000100000000000100C9
:1004300001000100000001000100010001000100B5
:1004400001000100010001000100010000000100A5
:100450000100010001000100000001000100010095
:100460000100010001000100010001000100010084
:100470000100010001000000010001000100010075
:100480000100010001000100010001000100010064
:100490000100010000000100010001000100010055
:1004A0000100010001000100010000000100010045
:1004B0000100000001000100000000000000010038
:1004C0000000000001000100010000000100010027
:1004D0000100010001000100010001000100010014
:1004E0000100000001000100010001000100000006
:1004F00001000100010001000100010001000100F4
:1005000001000100010001000100010000000100E4
:1005100001000100010001000100010001000100D3
:1005200001000100010001000100000001000100C4
:1005300001000100010001000100010001000100B3
:1005400000000100010001000000010001000000A6
:100550000000000001000000000001000100010097
:100560000000010001000100010001000100010084
:100570000100010001000100000001000100010074
:100580000100010000000100010001000100010064
:100590000100010001000100010001000100010053
:1005A0000100000001000100010001000100010044
:1005B0000100010001000100010001000100010033
:1005C0000000010001000100010001000100010024
:1005D0000100010001000000010001000100000015
:1005E0000100010000000000000001000000000008
:1005F00001000100010000000100010001000100F4
:1006000001000100010001000100010001000000E3
:1006100001000100010001000100000001000100D3
:1006200001000100010001000100010001000100C2
:1006300001000100010001000000010001000100B3
:1006400001000100010001000100010001000100A2
:100650000100010001000000010001000100010093
:100660000100010001000100010001000000010083
:100670000100010000000100010000000000000076
:100680000100000000000100010001000000010065
:100690000100010001000100010001000100010052
:1006A0000100010000000100010001000100010043
:1006B0000000010001000100010001000100010033
:1006C0000100010001000100010001000100000023
:1006D0000100010001000100010001000100010012
:1006E0000100010001000100010001000000010003
:1006F00001000100010001000100010001000100F2
:1007000001000000010001000100000001000100E3
:1007100000000000000001000000000001000100D6
:1007200001000000010001000100010001000100C2
:1007300001000100010001000100000001000100B2
:1007400001000100010000000100010001000100A2
:100750000100010001000100010001000100010091
:100760000100010000000100010001000100010082
:100770000100010001000100010001000100010071
:100780000100000001000100010001000100010062
:100790000100010001000100000001000100010052
:1007A0000000010001000000000000000100000046
:1007B0000000010001000100000001000100010033
:1007C0000100010001000100010001000100010021
:1007D0000000010001000100010001000000010013
:1007E0000100010001000100010001000100010001
:1007F00001000100010001000100000001000100F2
:1008000001000100010001000100010001000100E0
:1008100001000100010001000000010001000100D1
:1008200001000100010001000100010001000000C1
:1008300001000100010000000100010000000000B3
:1008400000000100000000000100010001000000A4
:100850000100010001000100010001000100010090
:100860000100010001000000010001000100010081
:100870000100000001000100010001000100010071
:100880000100010001000100010001000100010060
:100890000000010001000100010001000100010051
:1008A0000100010001000100010001000100000041
:1008B0000100010001000100010001000100010030
:1008C0000100010000000100010001000000010022
:1008D0000100000000000000010000000000010015
:1008E0000100010000000100010001000100010001
:1008F00001000100010001000100010000000100F1
:1009000001000100010001000000010001000100E0
:1009100001000100010001000100010001000100CF
:1009200001000100010000000100010001000100C0
:1009300001000100010001000100010001000100AF
:1009400001000100000001000100010001000100A0
:100950000100010001000100010000000100010090
:100960000100000001000100000000000000010083
:100970000000000001000100010000000100010072
:10098000010001000100010001000100010001005F
:100990000100000001000100010001000100000051
:1009A000010001000100010001000100010001003F
:1009B0000100010001000100010001000000010030
:1009C000010001000100010001000100010001001F
:1009D0000100010001000100010000000100010010
:1009E00001000100010001000100010001000100FF
:1009F00000000100010001000000010001000000F2
:100A000000000000010000000000010001000100E2
:100A100000000100010001000100010001000100CF
:100A200001000100010001000000010001000100BF
:100A300001000100000001000100010001000100AF
:100A4000010001000100010001000100010001009E
:100A5000010000000100010001000100010001008F
:100A6000010001000100010001000100010001007E
:100A7000000001000100010001000100010001006F
:100A80000100010001000000010001000100000060
:100A90000100010000000000000001000000000053
:100AA0000100010001000000010012036B0065005D
:100AB000790062006F00610072006400000016039C
:100AC00071006D006B006200750069006C006400CD
:100AD0006500720000000403090409026D000401AE
:100AE00000A0FA090400000103010100092111011D
:100AF00000012240000705810308000A09040100E3
:100B00000103010200092111010001224D00070526
:100B1000820308000A090402000103000000092101
:100B2000110100012236000705830308000A0904A9
:100B30000300010300000009211101000122390016
:100B4000070584032000011201100100000008EDD8
:100B5000FE606001000102000105010906A1010516
:100B60000719E029E715002501950875018102059F
:100B700008190129059505750191029501750391E3
:100B8000010507190029F71500250195F875018160
:100B900002C005010980A10185021601002603009B
:100BA0001A81002A8300751095018100C0050C0987
:100BB00001A1018503160100269C021A01002A9C4E
:100BC00002751095018100C005010902A10109010A
:100BD000A1000509190129051500250195057501D3
:100BE00081029501750381010501093009311581E3
:100BF000257F95027508810609381581257F9501A5
:100C000075088106050C0A38021581257F95017546
:100C1000088106C0C005010906A101050719E029E0
:100C2000E715002501950875018102950175088178
:100C300001050819012905950575019102950175B0
:100C40000391010507190029FF150026FF009506ED
:100C500075088100C00011241FBECFEFDAE0DEBFAF
:100C6000CDBF04B603FE27C080914E0290914F0283
:100C7000A0915002B09151028730904BA740B04BE9
:100C8000D1F410924E0210924F0210925002109224
:100C9000510214BE84B7877F84BF0FB6F894A8951D
:100CA00080916000886180936000109260000FBEA8
:100CB000E0E0F8E3099511E0A0E0B1E0E4E9F8E450
:100CC00002C005900D92AC33B107D9F722E0ACE336
:100CD000B1E001C01D92AE34B207E1F70E94781D69
:100CE0000C9448240C94000080E090E0089508954E
:100CF000089581E00895089581E008950C9479069F
:100D00000E94D30F2FEF84E39CE02150804090405D
:100D1000E1F700C000000C94FA17FF920F931F93A5
:100D2000CF93DF938C01FC01C081D181809176014A
:100D3000811113C08281882349F0CE010E944F1592
:100D4000F82E682FCE010E94F81404C0CE010E9434
:100D50002315F82EBE018F2D04C0CE010E944F1521
:100D6000BE010E94A707EC01B8010E947E068823FD
:100D700009F4DDC0B801CE010E94B809882309F446
:100D8000D6C0C531F0E7DF0708F07EC0C23080E78B
:100D9000D80708F452C0F8018281882309F459C0A9
:100DA0000E94FD16811102C00E94E3160E941A17CC
:100DB00090E09093400280933F02FE01E350F047A1
:100DC000E231F10530F4EA5AFF4F80913F020C9472
:100DD000F82380913F02816027C0826025C0846033
:100DE00023C0806121C080621FC080641DC08068F4
:100DF0001BC08460886018C08E7F16C08D7F14C0B1
:100E00008B7F12C08F7E10C08F7D0EC08F7B0CC079
:100E10008F770AC08B7F877F07C087FB222720F947
:100E200091E0922790FB87F980933F0280913F02E7
:100E30000E941E170E94D30F7AC0C115E0E7DE079B
:100E400081F0C130D047A9F081E080933E018093CA
:100E50003F01C801DF91CF911F910F91FF900C943A
:100E60007C06F8018281882309F461C00E94800613
:100E70005EC0F8018281882309F459C080910E0276
:100E8000816080930E0253C0CC3380E7D80719F5F8
:100E9000F8018281882351F010923E010E949F1731
:100EA00090933D0180933C0182E026C080913E01F9
:100EB00081110FC080913C0190913D010E94AB17C0
:100EC000883C910530F486E20E94630C86E20E9421
:100ED0002B0D82E019C0CD33D04709F0B5CFF80112
:100EE0008281882361F010923F010E949F179093A6
:100EF0003D0180933C0180E20E947A0D18C08091F0
:100F00003F01882321F080E20E94810D10C0809172
:100F10003C0190913D010E94AB17883C910598F7E8
:100F200087E20E94630C87E20E942B0DECCF80E0E9
:100F3000DF91CF911F910F91FF9008950C94070AB4
:100F40000C94090A0C947B060C94A20708952BE4D8
:100F5000829FC0011124FC012FE0729FE00DF11D62
:100F60001124E60FF11DEE0FFF1FE65BFE4F85918A
:100F700094910895880F991FFC01E655F54F8591CE
:100F8000949108950E94A7070E943B09811520E4CF
:100F90009207B0F5811540E3940708F0DEC0803E6B
:100FA0009105D8F4803C910508F06CC0883A910511
:100FB00078F4853A910508F068C08130910509F40C
:100FC00059C108F410C18430910508F053C10BC118
:100FD0008D3B910508F464C006C18F3F910509F06F
:100FE00048F4803F910508F0B2C0883E910508F4AE
:100FF00041C1F9C0811520E2920708F0AAC0089506
:10100000811543E5940790F4811522E5920708F0D5
:10101000C9C0811541E5940708F0BFC0811520E5DE
:10102000920708F09DC09F70906A0895811545E56C
:101030009407D8F4811524E5920708F0C9C09C01F3
:101040002370332741E050E002C0440F551F2A951A
:10105000E2F7282F2695269580E2289F90011124FB
:10106000CA01822B932B9A680895811546E594074F
:1010700008F4B3C09C0130562115304108F0B3C0CC
:101080009F70AFC0805C910965C0853A910509F4F5
:10109000ADC0863A910509F0ACC082E890E40895AD
:1010A000883A910509F4A8C0893A910509F4A7C0C6
:1010B0008A3A910509F4A6C08B3A910509F4A5C0B6
:1010C0008C3A910509F4A4C08B3B910509F4A3C0A7
:1010D0008C3B910509F4A2C08D3A910509F4A1C099
:1010E000803B910509F4A0C08E3A910509F49FC098
:1010F0008F3A910509F49EC0813B910509F49DC08A
:10110000823B910509F49CC0833B910509F49BC087
:10111000843B910509F49AC0853B910509F499C077
:10112000863B910509F498C0873B910509F497C067
:10113000883B910509F496C0893B910509F495C057
:101140008A3B910509F494C080E094E40895906589
:1011500008959F700E94BA0708959927906C08958A
:101160009C0154E0369527955A95E1F7922F93709C
:10117000482F437021E030E002C0220F331F4A9510
:10118000E2F73C68392B8F708695869540E2849F04
:10119000C0011124822B932B0895982F8827816FEB
:1011A000906A08959C012370332741E050E002C00B
:1011B000440F551F2A95E2F7282F2695269580E2A1
:1011C000289F90011124CA01822B932B9C680895BB
:1011D000982F8827846F906A08958F719927982F88
:1011E00088279062089580E090E0089581E890E477
:1011F000089583E890E4089582EE94E4089589EEDA
:1012000094E408958AEE94E4089585EB94E40895B7
:1012100086EB94E4089583EB94E4089584EB94E4DE
:10122000089587EB94E408958CEC94E408958DEC94
:1012300094E4089583E895E408958AE895E4089590
:1012400082E995E4089584E995E4089581E296E4BD
:10125000089583E296E4089584E296E4089585E291
:1012600096E4089586E296E4089587E296E4089568
:101270008AE296E408958238910549F1B0F4813309
:10128000910509F459C048F48932910509F44FC019
:101290008A32910509F455C008958533910509F402
:1012A00041C08933910599F00895833E910531F14C
:1012B00038F4803E910591F0823E9105A9F00895A1
:1012C000863E910501F1873E910539F108952091FF
:1012D0003F0220FD3BC021FD39C0089580913F02AF
:1012E00080FF34C089E341C080913F0282FF30C05B
:1012F00080913F0284FD2EC083EE37C080913F0273
:1013000082FD26C0F5CF80913F0283FF25C08091EA
:101310003F0284FD1FC087EE28C080913F0283FDFD
:101320001BC0F5CF80913F0285FD18C019C0809188
:101330003F0285FD15C012C080913F0286FD12C09C
:1013400013C080913F0286FD0FC00CC080EE0DC01F
:1013500082EE0BC080E009C086EE07C089E205C0BE
:1013600085E303C08AE201C081E390E00895089517
:101370000F931F93CF93FB012281211102C0C1E083
:1013800041C08C01C0914D01C11125C085319047EC
:10139000B1F70E94B70981E080934D010E949F1729
:1013A00090934C0180934B011092400110924201A6
:1013B0001092410110924401109243011092460193
:1013C00010924501109248011092470110924A0173
:1013D0001092490117C080914B0190914C010E94DD
:1013E000AB17883C910558F690914001E92FF0E049
:1013F000EE0FFF1FEF5BFE4F118300839F5F909303
:101400004001C0E08C2FCF911F910F9108950C9453
:1014100077060C947806CF93DF9385B7806885BFF5
:1014200085B7806885BFA2E2B1E047E251E061E0A4
:1014300070E08D91E82FE295EF70F0E021A18F70C0
:10144000EB0102C0CC0FDD1F8A95E2F7CE019C2F85
:101450009095922391A392A1892B82A34A175B07AF
:1014600041F7A3E1B1E042E251E061E070E08D912B
:10147000E82FE295EF70F0E021A18F70EB0102C040
:10148000CC0FDD1F8A95E2F7CE019C2F9095922319
:1014900091A392A1892B82A34A175B0741F7E8E544
:1014A000F1E0AEE4B1E082E691E0119211921D927A
:1014B0001D928E179F07C9F7DF91CF910C949E075D
:1014C0002F923F924F925F926F927F928F929F9254
:1014D000AF92BF92CF92DF92EF92FF920F931F9342
:1014E000CF93DF9322E2C22E21E0D22E0EE411E050
:1014F000E801EE24E394F12C662463945E01888075
:10150000998019821882D6018D916D01E82FE2959C
:10151000EF70F0E021A18F70A70102C0440F551FAA
:101520008A95E2F7CA01242B21A322A1742E70947C
:10153000272122A350EA5A95F1F793E1292E91E051
:10154000392E20E030E0D1015D901D01452D4295FE
:101550004F7050E0DA0190964C9068817981552D5A
:101560005F70D70102C0AA0FBB1F5A95E2F7AD0109
:10157000442141F4A701022E02C0440F551F0A94D2
:10158000E2F702C040E050E0462B572B59834883D6
:101590002F5F3F4F2F303105B1F691A1792271A213
:1015A00092A1892B82A32296F501808191818816D0
:1015B000990641F0609262010E949F179093640126
:1015C00080936301F1E0C835DF0709F097CF809180
:1015D00062018823B1F080916301909164010E94BF
:1015E000AB17069770F0E8E5F1E0D8018D919D9179
:1015F0008D0181939193B1E008351B07B1F71092EB
:1016000062010E94A00781E0DF91CF911F910F91AD
:10161000FF90EF90DF90CF90BF90AF909F908F9012
:101620007F906F905F904F903F902F900895E82F9C
:10163000F0E0EE0FFF1FE85AFE4F80819181089580
:10164000089590936A01809369010895E09169017A
:10165000F0916A01309721F00190F081E02D09941A
:1016600080E00895E0916901F0916A01309721F0DE
:101670000280F381E02D09940895E0916901F091D1
:101680006A01309721F00480F581E02D09940895D6
:1016900020916701309168012817390771F0909304
:1016A000680180936701E0916901F0916A013097C8
:1016B00021F00680F781E02D0994089520916501BD
:1016C000309166012817390771F090936601809375
:1016D0006501E0916901F0916A01309721F0008481
:1016E000F185E02D0994089508950C94740B0E94DF
:1016F00096170E940B0A0C9468185F926F927F9263
:101700008F929F92AF92BF92CF92DF92EF92FF9211
:101710000F931F93CF93DF93CDB7DEB72A970FB602
:10172000F894DEBF0FBECDBF0E94600A9CE6692E12
:1017300091E0792E00E010E088248394912C502EC3
:10174000802F0E94170B6C01F301A190B1903F0113
:10175000A826B926A114B104B1F40F5F1F4F0530BC
:10176000110569F78FEF89838A831B820E949F1777
:101770008160782F9D838C8349815A816B818D8113
:101780000E94350C39C080910E0281FD0E94200B11
:1017900080E090E07401082E02C0EE0CFF1C0A9459
:1017A000E2F795012E213F21232B09F18E835F82E1
:1017B000CE20DF2081E0CD2809F480E088870E94D8
:1017C0009F178160782F9A8789874E815F8168850E
:1017D0008A850E94350C000F111FF801E459FE4F55
:1017E00080819181E826F926F182E08205C0019688
:1017F0008F30910579F6B1CF0E940B1B0E94260B0A
:1018000090916B018917D9F00E94260B80936B0190
:101810002A960FB6F894DEBF0FBECDBFDF91CF91F1
:101820001F910F91FF90EF90DF90CF90BF90AF90FE
:101830009F908F907F906F905F900C94A4072A9652
:101840000FB6F894DEBF0FBECDBFDF91CF911F91D1
:101850000F91FF90EF90DF90CF90BF90AF909F904F
:101860008F907F906F905F900895CF93DF93CDB767
:10187000DEB72B970FB6F894DEBF0FBECDBF4F83F8
:10188000588769877A878B87DE01119686E0FD018C
:1018900011928A95E9F785E0FE01379601900D9245
:1018A0008A95E1F749815A816B817C818D819E8186
:1018B0000E9493122B960FB6F894DEBF0FBECDBFD9
:1018C000DF91CF910895882309F4C4C0823859F478
:1018D0000E94260B81FDBEC089E30E94ED150E9487
:1018E000B41689E30CC0833871F40E94260B80FD86
:1018F000B1C083E50E94ED150E94B41683E50E94F5
:101900002C160C94B416843859F40E94260B82FDD0
:10191000A1C087E40E94ED150E94B41687E4EFCFC2
:101920009CEF980F913A18F40E94ED15EACF90E2DF
:10193000980F983050F4877091E001C0990F8A9504
:10194000EAF7892F0E946D16DCCF9BE5980F933044
:1019500070F4853A29F0863A31F083E890E005C0CA
:1019600081E890E002C082E890E00C94480B98E592
:10197000980F953108F06EC0883A61F1893A69F1A3
:101980008A3A71F18B3A79F18C3A81F18B3B89F18A
:101990008C3B91F18D3A99F1803BA1F18E3AA9F1FE
:1019A0008F3AB1F1813BB9F1823BC1F1833BC9F17F
:1019B000843BD1F1853BD9F1863BE1F1873BE9F1ED
:1019C000883BF1F1893BF9F18A3B09F43FC080E0A3
:1019D00090E03EC082EE90E03BC089EE90E038C0DF
:1019E0008AEE90E035C085EB90E032C086EB90E067
:1019F0002FC083EB90E02CC084EB90E029C087EBF4
:101A000090E026C08CEC90E023C08DEC90E020C0EC
:101A100083E891E01DC08AE891E01AC082E991E074
:101A200017C084E991E014C081E292E011C083E222
:101A300092E00EC084E292E00BC085E292E008C022
:101A400086E292E005C087E292E002C08AE292E07C
:101A50000C945E0B0895882309F44BC0823859F426
:101A60000E94260B81FF45C089E30E94ED150E946C
:101A7000B41689E30CC0833871F40E94260B80FFF2
:101A800038C083E50E94ED150E94B41683E50E94DC
:101A90002C160C94B416843859F40E94260B82FF3D
:101AA00028C087E40E94ED150E94B41687E4EFCFAA
:101AB0009CEF980F913A58F390E2980F983050F4B9
:101AC000877091E001C0990F8A95EAF7892F0E94EB
:101AD0007316DFCF9BE5980F933020F480E090E001
:101AE0000C94480B885A853120F480E090E00C94E7
:101AF0005E0B0895882321F00E946D160C94B41695
:101B00000895882321F00E9473160C94B41608954A
:101B10008F929F92AF92BF92DF92EF92FF920F93BC
:101B20001F93CF93DF937C01D62FC72FFC01058134
:101B300002950F70128111110E948A160E94E615FB
:101B4000882379F0112369F080E28D0F883048F006
:101B500082E00E94CF150E94E61591E0D82ED9268A
:101B600001C0D12CEC2FE295EF708E2F90E0FC019C
:101B7000E859FF4F0C94F8238C2F807FCF70882377
:101B800011F0C295C07F112399F0CC2309F486C1CE
:101B900080E28D0F883010F0D11104C08C2F0E948C
:101BA0006D1603C08C2F0E947D160E94B41676C15C
:101BB0008D2F0E942B0DCC2309F489C180E28D0F5B
:101BC000883010F0D11104C08C2F0E94731603C00E
:101BD0008C2F0E9483160E94B41679C18C2F807FAF
:101BE000CF70803211F0C295C07FDD2319F0D13063
:101BF00099F01CC0112341F0002311F18C2F01300A
:101C000001F50E949D1663C1002319F0013009F40B
:101C10005EC10E94A0161AC0112321F0063008F000
:101C200056C10EC0053008F052C110C0112361F03A
:101C3000002331F0F701858180FF30C18F708583EB
:101C40008C2F0E947A0D43C101112EC18C2FE5C04B
:101C50008C2F86958695837019F0813061F037C19D
:101C6000112321F08D2F9C2F937002C080E090E013
:101C70000E94480B2CC1112321F08D2F9C2F9370B3
:101C800002C080E090E00E945E0B21C18D2F1123E5
:101C900019F00E94131A02C00E947B1A0E94001BB6
:101CA00016C18C2F837009F04CC0111110C12D2F5B
:101CB000229526952770220F220F6D2F6F70862F89
:101CC00090E0A0E0B0E04C015D01022E04C0880C61
:101CD000991CAA1CBB1C0A94D2F7D4FF12C08FE037
:101CE00090E0A0E0B0E004C0880F991FAA1FBB1FBE
:101CF0002A95D2F7BC01CD0160957095809590959D
:101D000003C060E070E0CB01C695C695C370C230D9
:101D100051F080F4682979298A299B29C13071F012
:101D20000E94E513D4C0682979298A299B290E9439
:101D30000114CDC00E94E513C501B4010E94C9136E
:101D4000C6C0112319F08C2F817001C0869588239D
:101D500009F4BDC02D2F229526952770220F220F42
:101D60006D2F6F70862F90E0A0E0B0E04C015D0118
:101D7000022E04C0880C991CAA1CBB1C0A94D2F722
:101D8000D4FF12C08FE090E0A0E0B0E004C0880F64
:101D9000991FAA1FBB1F2A95D2F7BC01CD016095E0
:101DA00070958095909503C060E070E0CB01C6957A
:101DB000C695C370C23051F080F4682979298A2908
:101DC0009B29C13071F00E94BF1481C06829792914
:101DD0008A299B290E94DB147AC00E94BF14C50186
:101DE000B4010E94A31473C08D2F90E0FC01E05E4B
:101DF000F109E531F10508F04DC0E858FF4F0C94AA
:101E0000F823DF708C2F8F71112321F00E943C1476
:101E10008D2F17CF0E945D148D2F0E94810D57C00A
:101E2000112341F0053008F052C08C2F8F710E94B1
:101E300082144DC0063008F04AC0F7CF112339F0A4
:101E40008C2F8F710E943C1442C01123C9F38C2F38
:101E50008F710E945D143BC0112329F08C2F8F716C
:101E60000E94271434C00E941D1431C0112349F070
:101E7000CF718C2F0E943C1463E08C2F0E94C615FA
:101E800026C081E00E94CF15023008F182E00E9456
:101E9000CF151DC0112331F0002391F28D2F0E9428
:101EA000630C15C0002399F28D2F0E942B0D0FC0DB
:101EB0004C2F4F706D2FC7010E9474060E94411372
:101EC00006C04C2F4F706D2FC7010E94A607DD2062
:101ED000E1F00E94C21580FD18C0F70112820E9435
:101EE000BC150E943C14C7010E94910F0E94BC15B2
:101EF000DF91CF911F910F91FF90EF90DF90BF90F6
:101F0000AF909F908F900C945D14DF91CF911F91B3
:101F10000F91FF90EF90DF90BF90AF909F908F90C8
:101F200008950F931F93CF93DF93EC0198818981DC
:101F30002B813C81232B31F08F3F31F481E09F3F97
:101F400019F403C081E001C080E080FD13C0CE0120
:101F50000E948D06882371F0688179818A810E94B0
:101F600099158C010E94F7140E94BE13B801CE018E
:101F70000E94880DDF91CF911F910F9108950E94CB
:101F80008A160E949A160E945F160E94B4160E943A
:101F9000B01B0E94001B80E090E00E94480B80E094
:101FA00090E00C945E0B0E947A160C94BF0F0E9476
:101FB0008E15E92FE295EF704E2F50E0FA0132971F
:101FC000EE30F105B0F4E357FF4F0C94F823803F57
:101FD00091F018F4803E68F40EC0843F51F40BC0B9
:101FE000803E48F0813F29F406C093FB882780F9A2
:101FF000089580E0089581E00895CF93DF9300D0A5
:1020000000D01F92CDB7DEB70F900F900F900F90BA
:102010000F90DF91CF910895CF93DF9300D000D040
:1020200000D0CDB7DEB726960FB6F894DEBF0FBE50
:10203000CDBFDF91CF9108951F93CF93DF93C091D0
:10204000770116E080917801C81799F0D0E01C9FC5
:10205000F0011D9FF00D1124E758FE4F4081518182
:1020600062817381848195810E940C102196C770D2
:10207000E9CFDF91CF911F9108954091A90150912F
:10208000AA016091AB017091AC018091AD0190917A
:10209000AE010C940C10CF938091AE0182958F709D
:1020A00009F05FC08091AB01882309F45AC0809188
:1020B0007701B09178017091A901A091AA01409196
:1020C000AC015091AD0191E07F3F09F090E0692FA4
:1020D000C6E08B1709F445C04115510521F0AF3F0B
:1020E00021F020E003C021E001C0262F90E020FD78
:1020F00035C0C89FF001C99FF00D1124E758FE4F6D
:1021000021812A132BC02081271328C0228121116D
:1021100025C0238134812417350710F4215031095B
:10212000241B350B283C3105C8F42091AE012F70DB
:1021300020612093AE0126E0289FF001299FF00D39
:102140001124E258FE4F80818F708061808389EA7C
:1021500091E00E94910FCF910C941C100196877012
:10216000B8CFCF910895AF92BF92CF92DF92EF9206
:10217000FF920F931F93CF93DF93CDB7DEB7619795
:102180000FB6F894DEBF0FBECDBF8C0185E0F8011D
:10219000DE011D9601900D928A95E1F7D8014C91D0
:1021A00011965C9111971296EC903091A901609173
:1021B000AA018091AC019091AD01009731F06F3F81
:1021C00031F421E03F3F19F403C021E001C020E0D9
:1021D000B22FB170BB2E20FD64C1F801C380D48042
:1021E000A090AB01AA2009F4C3C02091AE01C8168B
:1021F000D90628F0D601A81BB90BCD0104C08095E3
:1022000090958C0D9D1DFF24F394883C910580F0E2
:10221000F12C207F09F09CC07C2DD98AC88A6E2DB4
:1022200089890E94FD0F89EA91E00E94910FB4C054
:10223000822F807F09F054C0561314C0431312C07C
:10224000FE2CE1100FC02F7020612093AE010E9480
:102250003D1089EA91E00E94910F8091AE01F80152
:1022600085834FC1CD2831F05F3F31F481E04F3F8E
:1022700019F403C081E001C080E080FD03C081E06B
:102280008E2502C080E090E0F82FF170FF2E80FFD5
:102290001CC0809177012091780136E0821709F403
:1022A0000DC190E0389FF001399FF00D1124E758DF
:1022B000FE4F6181561306C06081461303C06281E0
:1022C000E61203C001968770E9CFFE2CEE2009F4D8
:1022D00018C18091AE0181608093AE01F12C11C1D3
:1022E000561309C0431307C0E11005C08091AE0129
:1022F000F8018583B0C04D875E878D859E850E94DD
:10230000D70F882379F1EE2069F12091AE01822F59
:1023100082958F7090E0029774F08091A90190915E
:10232000AA0198878F831986DB86CA862C87CE01FF
:1023300007960E94910F86E0F801A9EAB1E00190AA
:102340000D928A95E1F70E944B100E943D100DC03E
:10235000561761F14D875E878D859E850E94D70F48
:10236000811138C0C8010E94910FFF24F394C9C0A5
:10237000C816D90608F446C0F601E81BF90BCF01D0
:10238000883C910508F443C0F12C7C2DD98AC88A79
:102390006E2D89890E94FD0FE9EAF1E086E0DF01F8
:1023A0001D928A95E9F70E943D10ABC04313D2CF2E
:1023B000E110D0CF8091AE01F8018583C8010E9461
:1023C000910F86E0E9EAF1E0DF011D928A95E9F7D5
:1023D000FA2C97C0EE2031F22091AE01822F829527
:1023E0008F7090E002970CF4A6CF8091A901909194
:1023F000AA019A8389831B82DD82CC822E83CE013F
:10240000019697CF809590958C0D9D1DB9CFFE2C90
:10241000EE2009F4A7CF561333C0431331C02091E7
:10242000AE0120FD24C0822F82958F70482F50E08E
:1024300041155105E1F0D80115962C9315974F30B1
:10244000510549F08F5F982F9295907F822F8F7062
:10245000892B15968C93C8010E94910F86E0F80194
:10246000A9EAB1E001900D928A95E1F79CCF86E050
:10247000F801A9EAB1E001900D928A95E1F741C017
:102480004D875E878D859E850E94D70F811153CF22
:102490008091AE0181608093AE01C8010E94910FCE
:1024A00030C0EE2009F45ECF4D875E878D859E8516
:1024B0000E94D70F882309F455CF3DCF4D875E8703
:1024C0008D859E850E948E15292F22952F70223092
:1024D00028F49F7039F0811105C00BC0243028F416
:1024E0009F7049F4805E883020F0C8010E94910FEF
:1024F000BF2CFB2C06C0D80115969C91907F91F7BC
:10250000F8CF8F2D61960FB6F894DEBF0FBECDBF0A
:10251000DF91CF911F910F91FF90EF90DF90CF90BF
:10252000BF90AF9008951F93CF93DF93CDB7DEB7E1
:102530002C970FB6F894DEBF0FBECDBF4F835887E0
:1025400069877A878B879C87CE0107960E94B31094
:102550008823D1F09F8188852A853B85232B31F004
:102560008F3F31F481E09F3F19F403C081E001C047
:1025700080E080FD47C04F81588569857A858B85CD
:102580009C850E940C103EC086E0FE013796DE015D
:10259000119601900D928A95E1F7FF81E8856A8591
:1025A0007B856115710531F0EF3F31F481E0FF3F2C
:1025B00019F403C081E001C080E080FD23C02091B8
:1025C000780130E0C9010196877099274091770121
:1025D00050E084179507F1F1F983EA837D836C83DA
:1025E00096E0929FD001939FB00D1124A758BE4F43
:1025F000FE01319601900D929A95E1F78093780152
:102600000E941C1016E08091770190917801891743
:1026100071F1189FC001112487589E4F0E94B3107A
:10262000882329F1E09177011E9FF0011124E758DA
:10263000FE4F4081518162817381848195810E9426
:102640000C108091770190E0019687709927809314
:102650007701D9CF0E94D30F1092780110927701A1
:10266000E9EAF1E086E0DF011D928A95E9F72C9610
:102670000FB6F894DEBF0FBECDBFDF91CF911F9193
:102680000895EF92FF920F931F93CF93DF938C01E6
:10269000892B09F46CC0F12CEE24E394E801219617
:1026A000F8018491843740F4843008F051C08130BF
:1026B00081F0823019F15BC0853709F444C0A8F17C
:1026C0009CE7980F903708F052C08F770E942B0D2F
:1026D00041C00E5F1F4FFE01849190E2980F983029
:1026E00050F48770FE2D01C0FF0F8A95EAF78F2FF7
:1026F0000E948D1614C00E94630C2DC00E5F1F4FE8
:10270000FE01849190E2980F983060F48770FE2D5E
:1027100001C0FF0F8A95EAF78F2F0E9493160E943F
:10272000B41619C00E942B0D16C00E5F1F4FFE017C
:10273000C491CC2381F08FE99FE00197F1F700C0AD
:102740000000C150F6CF0E5F1F4FFE01F49003C092
:102750000E94630C8E018F2D882309F49FCFEFE92F
:10276000FFE03197F1F700C000008150F5CFDF9115
:10277000CF911F910F91FF90EF900895089560936E
:10278000E5017093E6018093E7019093E8010C94D2
:10279000BF0F0F931F930091E5011091E601209167
:1027A000E7013091E801DC01CB01802B912BA22BBA
:1027B000B32B8093E5019093E601A093E701B093DA
:1027C000E8011F910F910C94BF0F0F931F9300917D
:1027D000E5011091E6012091E7013091E801DC016B
:1027E000CB0180239123A223B3238093E50190930F
:1027F000E601A093E701B093E8011F910F910C94BB
:10280000BF0F0F931F930091E5011091E6012091F6
:10281000E7013091E801DC01CB0180279127A22755
:10282000B3278093E5019093E601A093E701B0936D
:10283000E8011F910F910C94BF0F1092E1011092CB
:10284000E2011092E3011092E4010C94BF0F41E009
:1028500050E060E070E004C0440F551F661F771F12
:102860008A95D2F74093E1015093E2016093E3012E
:102870007093E4010C94BF0F41E050E060E070E021
:1028800004C0440F551F661F771F8A95D2F78091A9
:10289000E1019091E201A091E301B091E401482BA4
:1028A000592B6A2B7B2B4093E1015093E2016093FB
:1028B000E3017093E4010C94BF0F41E050E060E04D
:1028C00070E004C0440F551F661F771F8A95D2F72A
:1028D00040955095609570958091E1019091E2014D
:1028E000A091E301B091E401482359236A237B239B
:1028F0004093E1015093E2016093E3017093E4019E
:102900000C94BF0F41E050E060E070E004C0440F61
:10291000551F661F771F8A95D2F78091E10190912C
:10292000E201A091E301B091E401482759276A2709
:102930007B274093E1015093E2016093E3017093A0
:10294000E4010C94BF0F0F931F930091E1011091CC
:10295000E2012091E3013091E401DC01CB01802B05
:10296000912BA22BB32B8093E1019093E201A093D2
:10297000E301B093E4011F910F910C94BF0F0F93EB
:102980001F930091E1011091E2012091E301309148
:10299000E401DC01CB0180239123A223B3238093A4
:1029A000E1019093E201A093E301B093E4011F9150
:1029B0000F910C94BF0F0F931F930091E1011091A1
:1029C000E2012091E3013091E401DC01CB01802799
:1029D0009127A227B3278093E1019093E201A0936E
:1029E000E301B093E4011F910F910C94BF0F089580
:1029F0002FE0929F800D1124E82FE695E695E6954D
:102A0000877051E001C0550F8A95EAF785E0E89F8D
:102A1000F0011124E155FE4F20E030E070E04081EC
:102A2000CB01022E02C0969587950A94E2F7817039
:102A3000819584278523842781932F5F3F4F2530FD
:102A4000310569F708952FE0929F800D1124682FBA
:102A5000669566956695982F977085E0689FB0019A
:102A6000112440E050E080E0FB01E40FF51FE15548
:102A7000FE4F208130E0092E02C0369527950A943A
:102A8000E2F721703327042E01C0220F0A94EAF7DF
:102A9000822B4F5F5F4F4530510531F70895CF923C
:102AA000DF92EF92FF920F931F93CF93DF938C01EE
:102AB000C090E101D090E201E090E301F090E401E8
:102AC0008091E5019091E601A091E701B091E801C4
:102AD000C82AD92AEA2AFB2ACFE1D0E0D701C601C9
:102AE0000C2E04C0B695A795979587950A94D2F7B2
:102AF00080FD04C0219790F780E007C0B8018C2FBB
:102B00000E94C2070197B1F38C2FDF91CF911F91E3
:102B10000F91FF90EF90DF90CF900895CF93DF93C8
:102B2000EC010E944F15BE010E94C207DF91CF91B8
:102B300008951F93CF93DF93EB0190917601992332
:102B400021F0CB010E948E1513C0882349F0CB01E0
:102B50000E944F15182F682FCE010E94F81404C050
:102B6000CB010E942315182FBE01812F0E94C2079E
:102B7000DF91CF911F9108958091E9018595859509
:102B8000859508958091E9018770089598E0899F5F
:102B900090011124262B2093E9010C943C142091E0
:102BA000E901809582238093E901982F977069F459
:102BB00030E0482F082E000C550B2417350729F05C
:102BC0008595859585950C945D1408959091E901FE
:102BD000977081E009F480E00895909112019923A3
:102BE000F1F090913F0297FF1AC0982F9695969515
:102BF00096959F3181F1E0910001F0910101E90F7B
:102C0000F11D877021E030E0A90102C0440F551F7B
:102C10008A95E2F7CA019181892B818308952091D9
:102C2000000130910101F90132969FEF40E051918E
:102C3000851789F09F3F19F4511101C0942F4F5F00
:102C40004E31A9F79F3F39F0F901E90FF11D97FDCA
:102C5000FA95828308950895909112019923F9F0CD
:102C600090913F0297FF1BC0982F96959695969549
:102C70009F3121F1E0910001F0910101E90FF11D77
:102C8000877021E030E0A90102C0440F551F8A95EA
:102C9000E2F7CA0180959181892381830895E091AB
:102CA0000001F09101019F01225E3F4F9281891343
:102CB00001C012823196E217F307C1F7089581E04F
:102CC00090E0E0910001F0910101E80FF91F1082FE
:102CD000019680329105A9F7089590910D02892BF4
:102CE00080930D020895809590910D028923809321
:102CF0000D02089510920D02089590910C02892BF7
:102D000080930C020895809590910C028923809302
:102D10000C02089510920C02089590910B02892BD9
:102D200080930B020895809590910B0289238093E4
:102D30000B02089510920B0208958093EA01089502
:102D40001092EA0108958091000190910101FC0127
:102D500031969C01205E3F4F80E0919191118F5FF1
:102D6000E217F307D1F70895E0910001F091010116
:102D700080910D028083E0910001F091010190812A
:102D800080910C02892B8083E0910001F091010178
:102D9000908180910B02892B80838091EA018823A6
:102DA00061F0E0910001F09101019081892B808315
:102DB0000E94A31681111092EA0180910001909166
:102DC00001010C94320B6DEE7EEF80E090E00E94EA
:102DD000322460E082E090E00E94202460E083E002
:102DE00090E00E94202460E084E090E00E94202493
:102DF00060E085E090E00C94202480E090E00E9468
:102E00001A2421E08D3E9E4F09F020E0822F089584
:102E100082E090E00C941224682F82E090E00C9401
:102E2000202483E090E00C941224682F83E090E04B
:102E30000C94202484E090E00C941224682F84E009
:102E400090E00C94202480914502843039F1109256
:102E50000F0220E488E190E00FB6F894A8958093E3
:102E600060000FBE2093600080E00E94A40783B73B
:102E7000817F846083BF83B7816083BF78948895A6
:102E800083B78E7F83BF0FB6F894A89580916000BA
:102E9000886180936000109260000FBE08950895CD
:102EA0000C944F17CF930E9450170E94600A0E9403
:102EB0004F17C0E08C2F0E94170B892B29F4CF5F8E
:102EC000C530C1F780E001C081E0CF9108950E9434
:102ED000D30F0E94260B0C94A4071F920F920FB6DB
:102EE0000F9211248F939F93AF93BF9380910F0202
:102EF000811113C080913B0290913C02A0913D0250
:102F0000B0913E024196A11DB11D80933B0290936A
:102F10003C02A0933D02B0933E02BF91AF919F91BE
:102F20008F910F900FBE0F901F90189582E084BD77
:102F300093E095BD9AEF97BD80936E0008952FB7EB
:102F4000F89480913B0290913C02A0913D02B09197
:102F50003E022FBF0895CF92DF92EF92FF920F9320
:102F60001F932FB7F89440913B0250913C0260911F
:102F70003D0270913E022FBF6A017B01EE24FF24C7
:102F80008C0120E030E0C016D106E206F30610F412
:102F9000415051099A01281B390BC9011F910F910A
:102FA000FF90EF90DF90CF9008951F920F920FB691
:102FB0000F9211248F939F93AF93BF9380913B0205
:102FC00090913C02A0913D02B0913E020196A11D5C
:102FD000B11D80933B0290933C02A0933D02B093BD
:102FE0003E02BF91AF919F918F910F900FBE0F90B6
:102FF0001F9018950E94B01FF8942FEF87EA91E672
:10300000215080409040E1F700C0000087E090EB45
:10301000DC0180934E0290934F02A0935002B09334
:1030200051029CE088E10FB6F894A8958093600067
:103030000FBE90936000FFCFAF92BF92CF92DF920E
:10304000EF92FF920F931F93CF93C0E0CC24C394D1
:10305000D12CE82EF12C8C2F0E94170B5C0100E084
:1030600010E0C601002E02C0880F991F0A94E2F7F3
:103070008A219B21892B31F40F5F1F4F0F301105DF
:1030800081F70AC0602F7C2F80E00E94A707E81616
:10309000F90691F781E004C0CF5FC530E1F680E02A
:1030A000CF911F910F91FF90EF90DF90CF90BF9045
:1030B000AF900895CF93C82F8CE20E941C188823EC
:1030C00021F08C2FCF910C941C1880E0CF910895A3
:1030D000CF930E94FD16811102C00E94E316C5E63F
:1030E000C15049F00E94600A8FE39CE90197F1F713
:1030F00000C00000F5CF89E20E945A1881110FC16B
:103100008AE20E945A1881110E94E31685E00E940B
:103110005A1881110E94FA170E94081780930E0214
:1031200087E00E945A188823A9F18BE10E945A185F
:10313000882351F080910E0281FB222720F991E033
:10314000922790FB81F90EC08EE00E945A188823C6
:1031500061F080910E0282FB222720F991E09227F4
:1031600090FB82F980930E0215C080E10E945A18EC
:1031700090910E02882341F093FB222720F981E0F1
:10318000822780FB93F904C0892F809580FB90F9FA
:1031900090930E0280910E020E940C170E941A1743
:1031A00090E09093400280933F0280EE0E945A1874
:1031B000882341F080913F02982F909590FB80F9F1
:1031C00080933F0289E30E945A18882359F0809126
:1031D0003F0281FB222720F991E0922790FB81F9A1
:1031E00080933F0282EE0E945A18882359F0809102
:1031F0003F0282FB222720F991E0922790FB82F97F
:1032000080933F0286EE0E945A18882359F08091DD
:103210003F0283FB222720F991E0922790FB83F95C
:1032200080933F0283EE0E945A18882359F08091C0
:103230003F0284FB222720F991E0922790FB84F93A
:1032400080933F0285E30E945A18882359F08091A9
:103250003F0285FB222720F991E0922790FB85F918
:1032600080933F0281E30E945A18882359F080918D
:103270003F0286FB222720F991E0922790FB86F9F6
:1032800080933F0281E10E945A18882359F080916F
:103290003F0287FB222720F991E0922790FB87F9D4
:1032A00080933F0280913F020E941E1787E20E9496
:1032B0005A18C82F8EE10E945A188111C2608FE1FE
:1032C0000E945A188111C46080E20E945A1881112C
:1032D000C86081E20E945A188111C06182E20E9496
:1032E0005A188111C06283E20E945A188111C06489
:1032F00084E20E945A18882311F0C06802C0CC23CF
:1033000029F08C2F0E9415176C2F03C00E941117F3
:10331000682F70E080E090E0CF910C94BF13CF91C4
:1033200008958091120280FF0BC06091050185E035
:10333000689FB001112475956795759567952BC0A9
:1033400081FF09C06091050185E0689FB0011124EB
:103350007595679520C082FF07C06091050185E0E3
:10336000689FB001112417C0909113029923D1F0E6
:1033700060910401961788F72091050185E0289F48
:1033800090011124929FA001939F500D112470E091
:10339000CA010E94E4236038710540F4611571058B
:1033A00019F406C065E070E0862F08958FE7089550
:1033B00081E008958091120280FF08C060910301AE
:1033C00070E0759567957595679521C081FF06C07A
:1033D0006091030170E07595679519C082FF04C084
:1033E0006091030170E010C090911302992399F04D
:1033F000609102019617A0F780910301899FC00197
:10340000112470E00E94E4236038710540F46115D6
:10341000710519F406C061E070E0862F08958FE70A
:10342000089581E00895803F21F40E9491198195CB
:1034300004C0813F29F40E949119809316020895D7
:10344000823F21F40E949119819504C0833F29F4A1
:103450000E949119809315020895893F19F40E94E2
:10346000DA1905C08A3F31F40E94DA1981958093F8
:10347000170208958B3F21F40E94DA19819504C048
:103480008C3F29F40E94DA19809318020895843F32
:1034900021F480911402816017C0853F21F480914E
:1034A0001402826011C0863F21F48091140284606E
:1034B0000BC0873F21F480911402886005C0883FCB
:1034C00031F48091140280618093140208958D3F3D
:1034D00021F48091120281600BC08E3F21F4809113
:1034E0001202826005C08F3F29F48091120284602D
:1034F000809312020895803F39F48091160287FF6D
:103500006CC01092160269C0813F29F480911602A6
:103510001816BCF362C090911502823F29F497FF00
:103520005CC01092150259C0833F19F41916CCF3F0
:1035300054C0893F41F48091170218160CF04DC019
:10354000109217024AC08A3F29F48091170287FF20
:1035500044C0F6CF8B3F39F48091180287FF3DC0FD
:10356000109218023AC08C3F29F480911802181664
:10357000BCF333C0843F21F4809114028E7F17C0C6
:10358000853F21F4809114028D7F11C0863F21F484
:10359000809114028B7F0BC0873F21F4809114022D
:1035A000877F05C0883F31F4809114028F7E80931D
:1035B000140213C08D3F21F4809112028E7F0BC044
:1035C0008E3F21F4809112028D7F05C08F3F29F438
:1035D000809112028B7F80931202809115028111DB
:1035E0000EC08091160281110AC0809117028111CC
:1035F00006C080911802811102C010921302089532
:1036000084E192E00E943D0B0E949F17909311026B
:103610008093100208951F93CF93DF93809110023F
:10362000909111020E94AB17AC0190911302992363
:1036300021F02091060130E006C0209107018AE0C8
:10364000289F900111244217530708F485C08091E8
:103650001502C0911602D091170210911802811123
:1036600007C0C11175C0D11173C0111171C074C0F0
:103670009F3F19F09F5F90931302181624F40E9445
:103680009119809315028091150287FF05C00E9451
:1036900091198195809315021C1624F40E949119AA
:1036A000809316028091160287FF05C00E9491192F
:1036B00081958093160260911502662331F1C091C5
:1036C0001602CC2311F1062E000C770B880B990BF8
:1036D0000E94EB2223E333E343E35FE30E944F23A3
:1036E0000E94B322609315026C2FCC0F770B880BCE
:1036F000990B0E94EB2223E333E343E35FE30E9451
:103700004F230E94B322609316021D1624F40E94D8
:10371000DA19809317028091170287FF05C00E9473
:10372000DA19819580931702111624F40E94DA1990
:10373000809318028091180287FF05C00E94DA1951
:10374000819580931802DF91CF911F910C94001BFB
:103750009F3F09F08FCFA0CFDF91CF911F910895A8
:10376000E4E1F2E085E0DF011D928A95E9F710922D
:103770001302109212020895809139020895CF9396
:10378000DF9300D01F92CDB7DEB79C018091450238
:10379000843019F593E099833B832A839093E90061
:1037A0008FEF9091E800815095FD06C095ED9A95B8
:1037B000F1F700008111F5CF8091E80085FF0DC081
:1037C00040E050E063E070E0CE0101960E941F1ED1
:1037D0008091E8008E778093E8000F900F900F9013
:1037E000DF91CF910895CF93DF9300D01F92CDB793
:1037F000DEB720914502243031F522E0298380583C
:1038000091099B838A8383E08093E9008FEF9091F5
:10381000E800815095FD06C095ED9A95F1F70000FE
:103820008111F5CF8091E80085FF0DC040E050E0A8
:1038300063E070E0CE0101960E941F1E8091E800B7
:103840008E778093E8000F900F900F90DF91CF91CB
:103850000895209145022430F1F422E02093E900FC
:103860002FEF3091E800215035FD06C035ED3A9537
:10387000F1F700002111F5CF2091E80025FF0BC0E2
:1038800040E050E065E070E00E941F1E8091E8007B
:103890008E778093E8000895CF93DF93EC019091A9
:1038A0004502943009F046C0809112018823D9F076
:1038B00080913F0287FF17C09093E9008FEF9091AE
:1038C000E800815095FD06C095E19A95F1F700005A
:1038D0008111F5CF8091E80085FF2CC040E050E0D9
:1038E00060E270E017C081E08093E9008FEF909173
:1038F000E800815095FD06C095ED9A95F1F700001E
:103900008111F5CF8091E80085FF14C040E050E0C0
:1039100068E070E0CE010E941F1E8091E8008E7763
:103920008093E80080E2FE01A9E1B2E001900D92EF
:103930008A95E1F7DF91CF9108958091440281113A
:1039400009C00E94B01F0E940D208091E200846097
:103950008093E20008951092440208950895089516
:103960000C94671742E061EC81E00E94291F42E05D
:1039700061EC82E00E94291F42E061EC83E00E943A
:10398000291F42E261EC84E00C94291F80914702D8
:10399000833009F455C030F4813071F0823009F47D
:1039A0008EC008958A3009F47AC08B3009F460C063
:1039B000893009F09CC020C080914602813A09F00C
:1039C00096C08091E800877F8093E80080914A024A
:1039D00090914B02892B21F460E289E192E003C0CF
:1039E00060E080E090E070E00E946A1E8091E80054
:1039F0008B778093E800089580914602813209F028
:103A000076C080914A0290914B02009719F003977B
:103A100009F06DC08091E800877F8093E800809175
:103A2000E80082FD05C0809145028111F8CF5FC09A
:103A30008091F100809339028091E8008B7753C028
:103A400080914602813A09F052C080914A029091D9
:103A50004B02892B09F04BC08091E800877F80934F
:103A6000E8008091E80080FFFCCF8091120136C011
:103A7000809146028132D9F580914A0290914B02A1
:103A8000892BA9F58091E800877F8093E8000E9448
:103A90005E1F80914802809312010C94D30F809195
:103AA0004602813221F58091E800877F8093E8000B
:103AB0000E945E1F8091490280933A02089580918E
:103AC0004602813AA1F48091E800877F8093E80064
:103AD0008091E80080FFFCCF80913A028093F10052
:103AE0008091E8008E778093E8000C945E1F089523
:103AF00084B7877F84BF0FB6F894A8958091600043
:103B0000886180936000109260000FBE80E880930F
:103B10006100109261000E94750B0E94B01F0E940C
:103B20000D208091E20084608093E20078940E94EE
:103B300098220E94770B88E091E00E94210B8091EF
:103B40004502853069F40E9423178091430288233F
:103B5000B1F30E945217882391F30E94091EEFCF00
:103B60000E947D0BECCF292F332723303105C9F07C
:103B700060F42130310581F02230310509F041C077
:103B80008DE690E02AED3AE040C021323105E1F0C7
:103B90002232310531F135C082E190E027E43BE08B
:103BA00034C099278130910549F028F0029749F5F2
:103BB000EAEAFAE005C0E6EDFAE002C0EEEBFAE070
:103BC000849190E09F0121C06430D8F4E62FF0E0AA
:103BD000EE0FFF1FED5CFE4F2081318189E090E008
:103BE00014C0643070F470E0FB01EE0FFF1FE55D60
:103BF000FE4F20813181FB01E95DFE4F808190E025
:103C000004C080E090E020E030E0FA0131832083BE
:103C1000089580E189BD82E189BD09B400FEFDCF30
:103C20008091D8008F7D8093D8008091E0008260E1
:103C30008093E0008091E00081FDFCCF0895CF9259
:103C4000DF92EF92FF920F931F93CF93DF93EC01DC
:103C50008B017A010E947D1F811133C0E114F104B0
:103C600039F0F70180819181081B190BC80FD91F0A
:103C7000C12CD12C0115110519F18091E80085FDA9
:103C800016C08091E8008E778093E800E114F1047B
:103C900049F0F70180819181C80ED91ED182C0827E
:103CA00085E00FC00E947D1F882321F30AC08991FF
:103CB0008093F10001501109FFEFCF1ADF0ADACF2C
:103CC00080E0DF91CF911F910F91FF90EF90DF90F7
:103CD000CF90089520914C0230914D02261737075E
:103CE00048F06115710539F42091E8002E77209392
:103CF000E80001C0B901FC0120E06115710579F10E
:103D0000809145028823F1F18530F1F18091E8003E
:103D100083FD3CC08091E80082FD2EC08091E800C8
:103D200080FFEBCF2091F3008091F20090E0922B86
:103D30006115710551F08830910538F42191209377
:103D4000F100615071090196F3CF21E0089709F065
:103D500020E08091E8008E778093E800CECF21119B
:103D6000CFCF0AC080914502882361F0853061F091
:103D70008091E80083FD0AC08091E80082FFF2CFC5
:103D800080E0089582E0089583E0089581E0089539
:103D900020914C0230914D022617370748F06115EB
:103DA000710539F42091E8002E772093E80001C0D6
:103DB000B901FC0120E06115710591F18091450286
:103DC000882309F440C0853009F43FC08091E800A1
:103DD00083FD3DC08091E80082FD2FC08091E80006
:103DE00080FFE9CF2091F3008091F20090E0922BC8
:103DF0006115710559F08830910540F424912093A4
:103E0000F1003196615071090196F2CF21E00897D7
:103E100009F020E08091E8008E778093E800CBCF16
:103E20002111CCCF0AC080914502882361F08530F2
:103E300061F08091E80083FD0AC08091E80082FF74
:103E4000F2CF80E0089582E0089583E0089581E054
:103E50000895982F973068F59093E900981739F0F6
:103E60007091EC002091ED005091F00003C0242FE0
:103E7000762F50E021FD02C09F5FECCF3091EB0028
:103E80003E7F3093EB003091ED003D7F3093ED00AD
:103E90003091EB0031603093EB007093EC00209395
:103EA000ED005093F0002091EE0027FDE5CF80E07B
:103EB00008958F708093E90081E008958091460213
:103EC00087FF11C08091E80082FD05C08091450206
:103ED0008111F8CF11C08091E8008B770BC08091E1
:103EE0004502882349F08091E80080FFF8CF809157
:103EF000E8008E778093E80008952091E4003091E7
:103F0000E50095E64091EC00842F817040FF23C0CE
:103F10008091E80080FD1DC080914502882399F0C2
:103F2000853099F08091EB0085FD11C04091E4004F
:103F30005091E5002417350729F3915011F09A01AB
:103F4000E1CF84E0089582E0089583E0089581E060
:103F5000089580E008954091E80042FFDDCF089584
:103F60000E941E200E942620E0EEF0E08081816009
:103F70008083E8EDF0E080818F77808319BCA7ED26
:103F8000B0E08C918E7F8C9380818F7E80831092A5
:103F9000440208950F931F93CF93DF930E941E2036
:103FA0000E942620C8EDD0E088818F7788838881A1
:103FB0008068888388818F7D888319BC1092450230
:103FC00010924102109243021092420200EE10E061
:103FD000F80180818B7F808388818160888342E0C3
:103FE00060E080E00E94291FE1EEF0E080818E7F9A
:103FF0008083E2EEF0E08081816080838081886050
:104000008083F80180818E7F8083888180618883AE
:10401000DF91CF911F910F910895E8EDF0E080813D
:104020008F7E8083E7EDF0E080818160808384E093
:1040300082BF81E0809344020C94CA1FE8EDF0E057
:1040400080818E7F80831092E20008951092DA00C2
:104050001092E10008951F920F920FB60F92112453
:104060002F933F934F935F936F937F938F939F9380
:10407000AF93BF93EF93FF938091E10082FF0BC05A
:104080008091E20082FF07C08091E1008B7F8093E6
:10409000E1000E9497228091DA0080FF1FC080918A
:1040A000D80080FF1BC08091DA008E7F8093DA00F9
:1040B0008091D90080FF0DC080E189BD82E189BD7A
:1040C00009B400FEFDCF81E0809345020E949D1C53
:1040D00005C019BC109245020E94AB1C8091E10002
:1040E00080FF19C08091E20080FF15C08091E2003E
:1040F0008E7F8093E2008091E20080618093E200F5
:104100008091D80080628093D80019BC85E08093AC
:1041100045020E94AF1C8091E10084FF30C0809175
:10412000E20084FF2CC080E189BD82E189BD09B431
:1041300000FEFDCF8091D8008F7D8093D8008091C4
:10414000E1008F7E8093E1008091E2008F7E80937A
:10415000E2008091E20081608093E2008091410260
:10416000882311F084E007C08091E30087FD02C03E
:1041700081E001C083E0809345020E94B01C8091E1
:10418000E10083FF29C08091E20083FF25C0809178
:10419000E100877F8093E10082E0809345021092E6
:1041A00041028091E1008E7F8093E1008091E200E6
:1041B0008E7F8093E2008091E20080618093E20034
:1041C00042E060E080E00E94291F8091F00088605A
:1041D0008093F0000E94AE1CFF91EF91BF91AF91D0
:1041E0009F918F917F916F915F914F913F912F910F
:1041F0000F900FBE0F901F9018951F920F920FB641
:104200000F9211242F933F934F935F936F937F935C
:104210008F939F93AF93BF93CF93DF93EF93FF93CE
:10422000C091E900CF708091EC00D82FD17080FD53
:10423000D0E81092E9008091F000877F8093F00031
:1042400078940E9441211092E9008091F0008860EA
:104250008093F000CD2BCF70C093E900FF91EF91D8
:10426000DF91CF91BF91AF919F918F917F916F918E
:104270005F914F913F912F910F900FBE0F901F9024
:1042800018951F93CF93DF93CDB7DEB7AA970FB6DC
:10429000F894DEBF0FBECDBFE6E4F2E08091F100FE
:1042A000819322E0EE34F207C9F70E94C61C809188
:1042B000E80083FF24C18091460290914702492F74
:1042C00050E04A30510508F01AC1FA01E556FF4F97
:1042D0000C94F823803881F0823809F010C1809165
:1042E0004A028F708093E9008091EB0085FB88275C
:1042F00080F91092E90006C0809142029091430239
:10430000911182609091E800977F9093E8008093EC
:10431000F1001092F100C8C0282F2D7F09F0EFC0E6
:10432000882319F0823061F0EAC080914802813020
:1043300009F0E5C0933009F080E0809343022BC080
:1043400080914802811127C080914A028F7009F440
:10435000D6C08093E9002091EB0020FF1CC0933071
:1043600021F48091EB00806214C09091EB00906189
:104370009093EB0021E030E0A90102C0440F551FEB
:104380008A95E2F74093EA001092EA008091EB00F0
:1043900088608093EB001092E9008091E800877FAD
:1043A00086C08111ACC0109148021F778091E30054
:1043B0008078812B8093E3008091E800877F809351
:1043C000E8000E945E1F8091E80080FFFCCF809192
:1043D000E30080688093E300111102C082E001C015
:1043E00083E0809345028BC08058823008F087C0FC
:1043F00080914802909149028C3D53E0950779F5F0
:1044000083E08A838AE289834FB7F894DE011396AA
:1044100020E03EE051E2E32FF0E050935700E491BA
:1044200020FF03C0E295EF703F5FEF708E2F90E0AA
:10443000EA3010F0C79601C0C0968D939D932F5F10
:10444000243149F74FBF8091E800877F8093E800CF
:104450006AE270E0CE0101960E946A1E14C0AE01AD
:104460004F5F5F4F60914A020E94B31DBC01892BD0
:1044700009F445C09091E800977F9093E800898106
:104480009A810E94C81E8091E8008B778093E80093
:1044900036C08038A1F58091E800877F8093E800DE
:1044A000809141028093F1008091E8008E778093A3
:1044B000E8000E945E1F23C0811121C08091480244
:1044C0009091490299270297D4F48091E800877F60
:1044D0008093E80080914802809341020E945E1F11
:1044E00080914102811106C08091E30087FD02C0E6
:1044F00081E001C084E0809345020E94B21C80915B
:10450000E80083FF0AC08091E800877F8093E8007D
:104510008091EB0080628093EB00AA960FB6F8942E
:10452000DEBF0FBECDBFDF91CF911F9108950895DB
:10453000CF93809145028823A1F0C091E900CF700C
:104540009091EC00892F817090FD80E8C82B10922B
:10455000E9008091E80083FD0E944121CF70C09363
:10456000E900CF9108950E94BA226894B1110C9489
:10457000492308950E942E2388F09F5798F0B92F61
:104580009927B751B0F0E1F0660F771F881F991F88
:104590001AF0BA95C9F714C0B13091F00E944823BF
:1045A000B1E008950C944823672F782F8827B85FCF
:1045B00039F0B93FCCF3869577956795B395D9F7E0
:1045C0003EF490958095709561957F4F8F4F9F4FEA
:1045D0000895E89409C097FB3EF4909580957095F6
:1045E00061957F4F8F4F9F4F9923A9F0F92F96E93F
:1045F000BB279395F695879577956795B795F111B4
:10460000F8CFFAF4BB0F11F460FF1BC06F5F7F4F50
:104610008F4F9F4F16C0882311F096E911C0772362
:1046200021F09EE8872F762F05C0662371F096E86B
:10463000862F70E060E02AF09A95660F771F881F3A
:10464000DAF7880F9695879597F9089557FD905852
:10465000440F551F59F05F3F71F04795880F97FB46
:10466000991F61F09F3F79F0879508951216130600
:104670001406551FF2CF4695F1DF08C0161617062F
:104680001806991FF1CF8695710561050894089564
:10469000E894BB2766277727CB0197F908950E94F6
:1046A00062230C94D3230E94C52338F00E94CC23AC
:1046B00020F0952311F00C94BC230C94C2231124F8
:1046C0000C9449230E94262370F3959FC1F3950F04
:1046D00050E0551F629FF001729FBB27F00DB11D86
:1046E000639FAA27F00DB11DAA1F649F6627B00D16
:1046F000A11D661F829F2227B00DA11D621F739FFF
:10470000B00DA11D621F839FA00D611D221F749F0C
:104710003327A00D611D231F849F600D211D822F53
:10472000762F6A2F11249F5750409AF0F1F088237A
:104730004AF0EE0FFF1FBB1F661F771F881F9150A7
:104740005040A9F79E3F510580F00C94BC230C9477
:1047500049235F3FE4F3983ED4F3869577956795B8
:10476000B795F795E7959F5FC1F7FE2B880F911DD1
:104770009695879597F9089597F99F6780E870E077
:1047800060E008959FEF80EC089500240A941616C7
:10479000170618060906089500240A94121613062F
:1047A000140605060895092E0394000C11F48823BD
:1047B00052F0BB0F40F4BF2B11F460FF04C06F5FD9
:1047C0007F4F8F4F9F4F089597FB072E16F400944D
:1047D00007D077FD09D00E94FE2307FC05D03EF4E8
:1047E000909581959F4F0895709561957F4F08959D
:1047F000EE0FFF1F0590F491E02D0994AA1BBB1B3F
:1048000051E107C0AA1FBB1FA617B70710F0A61BD0
:10481000B70B881F991F5A95A9F780959095BC01F1
:10482000CD010895F999FECF92BD81BDF89A9927DF
:1048300080B50895A8E1B0E042E050E00C943A243D
:10484000262FF999FECF92BD81BDF89A019700B449
:10485000021639F01FBA20BD0FB6F894FA9AF99AE9
:104860000FBE08950196272F0E9421240C94202426
:10487000DC01CB01FC01F999FECF06C0F2BDE1BD20
:10488000F89A319600B40D9241505040B8F708950F
:04489000F894FFCFCA
:10489400EB012808140A321EBC1B4C1C291CF31BF8
:1048A400BF1B01353637606162636465666790914A
:1048B40092933031323334404D3639150CC80B9253
:0C48C4000B590BEC0A050B1E0B370B0008
:00000001FF
